{
  "_format": "hh-sol-artifact-1",
  "contractName": "MyEpicNFT",
  "sourceName": "contracts/MyEpicNFT.sol",
  "abi": [
    {
      "inputs": [],
      "stateMutability": "nonpayable",
      "type": "constructor"
    },
    {
      "anonymous": false,
      "inputs": [
        {
          "indexed": true,
          "internalType": "address",
          "name": "owner",
          "type": "address"
        },
        {
          "indexed": true,
          "internalType": "address",
          "name": "approved",
          "type": "address"
        },
        {
          "indexed": true,
          "internalType": "uint256",
          "name": "tokenId",
          "type": "uint256"
        }
      ],
      "name": "Approval",
      "type": "event"
    },
    {
      "anonymous": false,
      "inputs": [
        {
          "indexed": true,
          "internalType": "address",
          "name": "owner",
          "type": "address"
        },
        {
          "indexed": true,
          "internalType": "address",
          "name": "operator",
          "type": "address"
        },
        {
          "indexed": false,
          "internalType": "bool",
          "name": "approved",
          "type": "bool"
        }
      ],
      "name": "ApprovalForAll",
      "type": "event"
    },
    {
      "anonymous": false,
      "inputs": [
        {
          "indexed": false,
          "internalType": "address",
          "name": "sender",
          "type": "address"
        },
        {
          "indexed": false,
          "internalType": "uint256",
          "name": "tokenId",
          "type": "uint256"
        }
      ],
      "name": "MintedNewEpicNFT",
      "type": "event"
    },
    {
      "anonymous": false,
      "inputs": [
        {
          "indexed": true,
          "internalType": "address",
          "name": "from",
          "type": "address"
        },
        {
          "indexed": true,
          "internalType": "address",
          "name": "to",
          "type": "address"
        },
        {
          "indexed": true,
          "internalType": "uint256",
          "name": "tokenId",
          "type": "uint256"
        }
      ],
      "name": "Transfer",
      "type": "event"
    },
    {
      "inputs": [
        {
          "internalType": "address",
          "name": "to",
          "type": "address"
        },
        {
          "internalType": "uint256",
          "name": "tokenId",
          "type": "uint256"
        }
      ],
      "name": "approve",
      "outputs": [],
      "stateMutability": "nonpayable",
      "type": "function"
    },
    {
      "inputs": [
        {
          "internalType": "address",
          "name": "owner",
          "type": "address"
        }
      ],
      "name": "balanceOf",
      "outputs": [
        {
          "internalType": "uint256",
          "name": "",
          "type": "uint256"
        }
      ],
      "stateMutability": "view",
      "type": "function"
    },
    {
      "inputs": [
        {
          "internalType": "uint256",
          "name": "tokenId",
          "type": "uint256"
        }
      ],
      "name": "getApproved",
      "outputs": [
        {
          "internalType": "address",
          "name": "",
          "type": "address"
        }
      ],
      "stateMutability": "view",
      "type": "function"
    },
    {
      "inputs": [],
      "name": "getTotalNFTsMinted",
      "outputs": [
        {
          "internalType": "uint256",
          "name": "",
          "type": "uint256"
        }
      ],
      "stateMutability": "view",
      "type": "function"
    },
    {
      "inputs": [
        {
          "internalType": "address",
          "name": "owner",
          "type": "address"
        },
        {
          "internalType": "address",
          "name": "operator",
          "type": "address"
        }
      ],
      "name": "isApprovedForAll",
      "outputs": [
        {
          "internalType": "bool",
          "name": "",
          "type": "bool"
        }
      ],
      "stateMutability": "view",
      "type": "function"
    },
    {
      "inputs": [],
      "name": "makeAnEpicNFT",
      "outputs": [],
      "stateMutability": "nonpayable",
      "type": "function"
    },
    {
      "inputs": [],
      "name": "name",
      "outputs": [
        {
          "internalType": "string",
          "name": "",
          "type": "string"
        }
      ],
      "stateMutability": "view",
      "type": "function"
    },
    {
      "inputs": [
        {
          "internalType": "uint256",
          "name": "tokenId",
          "type": "uint256"
        }
      ],
      "name": "ownerOf",
      "outputs": [
        {
          "internalType": "address",
          "name": "",
          "type": "address"
        }
      ],
      "stateMutability": "view",
      "type": "function"
    },
    {
      "inputs": [
        {
          "internalType": "uint256",
          "name": "tokenId",
          "type": "uint256"
        }
      ],
      "name": "pickRandomColor",
      "outputs": [
        {
          "internalType": "string",
          "name": "",
          "type": "string"
        }
      ],
      "stateMutability": "view",
      "type": "function"
    },
    {
      "inputs": [
        {
          "internalType": "uint256",
          "name": "tokenId",
          "type": "uint256"
        }
      ],
      "name": "pickRandomFirstWord",
      "outputs": [
        {
          "internalType": "string",
          "name": "",
          "type": "string"
        }
      ],
      "stateMutability": "view",
      "type": "function"
    },
    {
      "inputs": [
        {
          "internalType": "uint256",
          "name": "tokenId",
          "type": "uint256"
        }
      ],
      "name": "pickRandomSecondWord",
      "outputs": [
        {
          "internalType": "string",
          "name": "",
          "type": "string"
        }
      ],
      "stateMutability": "view",
      "type": "function"
    },
    {
      "inputs": [
        {
          "internalType": "uint256",
          "name": "tokenId",
          "type": "uint256"
        }
      ],
      "name": "pickRandomThirdWord",
      "outputs": [
        {
          "internalType": "string",
          "name": "",
          "type": "string"
        }
      ],
      "stateMutability": "view",
      "type": "function"
    },
    {
      "inputs": [
        {
          "internalType": "address",
          "name": "from",
          "type": "address"
        },
        {
          "internalType": "address",
          "name": "to",
          "type": "address"
        },
        {
          "internalType": "uint256",
          "name": "tokenId",
          "type": "uint256"
        }
      ],
      "name": "safeTransferFrom",
      "outputs": [],
      "stateMutability": "nonpayable",
      "type": "function"
    },
    {
      "inputs": [
        {
          "internalType": "address",
          "name": "from",
          "type": "address"
        },
        {
          "internalType": "address",
          "name": "to",
          "type": "address"
        },
        {
          "internalType": "uint256",
          "name": "tokenId",
          "type": "uint256"
        },
        {
          "internalType": "bytes",
          "name": "_data",
          "type": "bytes"
        }
      ],
      "name": "safeTransferFrom",
      "outputs": [],
      "stateMutability": "nonpayable",
      "type": "function"
    },
    {
      "inputs": [
        {
          "internalType": "address",
          "name": "operator",
          "type": "address"
        },
        {
          "internalType": "bool",
          "name": "approved",
          "type": "bool"
        }
      ],
      "name": "setApprovalForAll",
      "outputs": [],
      "stateMutability": "nonpayable",
      "type": "function"
    },
    {
      "inputs": [
        {
          "internalType": "bytes4",
          "name": "interfaceId",
          "type": "bytes4"
        }
      ],
      "name": "supportsInterface",
      "outputs": [
        {
          "internalType": "bool",
          "name": "",
          "type": "bool"
        }
      ],
      "stateMutability": "view",
      "type": "function"
    },
    {
      "inputs": [],
      "name": "symbol",
      "outputs": [
        {
          "internalType": "string",
          "name": "",
          "type": "string"
        }
      ],
      "stateMutability": "view",
      "type": "function"
    },
    {
      "inputs": [
        {
          "internalType": "uint256",
          "name": "tokenId",
          "type": "uint256"
        }
      ],
      "name": "tokenURI",
      "outputs": [
        {
          "internalType": "string",
          "name": "",
          "type": "string"
        }
      ],
      "stateMutability": "view",
      "type": "function"
    },
    {
      "inputs": [
        {
          "internalType": "address",
          "name": "from",
          "type": "address"
        },
        {
          "internalType": "address",
          "name": "to",
          "type": "address"
        },
        {
          "internalType": "uint256",
          "name": "tokenId",
          "type": "uint256"
        }
      ],
      "name": "transferFrom",
      "outputs": [],
      "stateMutability": "nonpayable",
      "type": "function"
    }
  ],
  "bytecode": "0x6080604052603260085560405180610120016040528060fc8152602001620053d460fc9139600a90805190602001906200003b92919062001259565b50604051806080016040528060568152602001620054d060569139600b90805190602001906200006d92919062001259565b506040518061020001604052806040518060400160405280600581526020017f48756d616e00000000000000000000000000000000000000000000000000000081525081526020016040518060400160405280600781526020017f447565726761720000000000000000000000000000000000000000000000000081525081526020016040518060400160405280600781526020017f576f6f64456c660000000000000000000000000000000000000000000000000081525081526020016040518060400160405280600a81526020017f447261676f6e626f726e0000000000000000000000000000000000000000000081525081526020016040518060400160405280600d81526020017f53746f757448616c666c696e670000000000000000000000000000000000000081525081526020016040518060400160405280600b81526020017f466f72657374476e6f6d6500000000000000000000000000000000000000000081525081526020016040518060400160405280600481526020017f44726f770000000000000000000000000000000000000000000000000000000081525081526020016040518060400160405280600981526020017f44656570476e6f6d65000000000000000000000000000000000000000000000081525081526020016040518060400160405280601181526020017f4c69676874666f6f7448616c666c696e6700000000000000000000000000000081525081526020016040518060400160405280600981526020017f526f636b476e6f6d65000000000000000000000000000000000000000000000081525081526020016040518060400160405280600881526020017f546965666c696e6700000000000000000000000000000000000000000000000081525081526020016040518060400160405280600781526020017f48616c664f72630000000000000000000000000000000000000000000000000081525081526020016040518060400160405280600981526020017f48696c6c4477617266000000000000000000000000000000000000000000000081525081526020016040518060400160405280600781526020017f48616c66456c660000000000000000000000000000000000000000000000000081525081526020016040518060400160405280600d81526020017f4d6f756e7461696e44776172660000000000000000000000000000000000000081525081526020016040518060400160405280600781526020017f48696768456c6600000000000000000000000000000000000000000000000000815250815250600c9060106200043a929190620012ea565b50604051806101c001604052806040518060400160405280600581526020017f526f67756500000000000000000000000000000000000000000000000000000081525081526020016040518060400160405280600581526020017f447275696400000000000000000000000000000000000000000000000000000081525081526020016040518060400160405280600481526020017f4d6f6e6b0000000000000000000000000000000000000000000000000000000081525081526020016040518060400160405280600481526020017f426172640000000000000000000000000000000000000000000000000000000081525081526020016040518060400160405280600681526020017f57697a617264000000000000000000000000000000000000000000000000000081525081526020016040518060400160405280600781526020017f466967687465720000000000000000000000000000000000000000000000000081525081526020016040518060400160405280600781526020017f50616c6164696e0000000000000000000000000000000000000000000000000081525081526020016040518060400160405280600581526020017f526f67756500000000000000000000000000000000000000000000000000000081525081526020016040518060400160405280600881526020017f536f72636572657200000000000000000000000000000000000000000000000081525081526020016040518060400160405280600781526020017f5761726c6f636b0000000000000000000000000000000000000000000000000081525081526020016040518060400160405280600981526020017f42617262617269616e000000000000000000000000000000000000000000000081525081526020016040518060400160405280600681526020017f52616e676572000000000000000000000000000000000000000000000000000081525081526020016040518060400160405280600681526020017f436c65726963000000000000000000000000000000000000000000000000000081525081526020016040518060400160405280600981526020017f4172746966696365720000000000000000000000000000000000000000000000815250815250600d90600e6200079192919062001351565b50604051806101a001604052806040518060400160405280600981526020017f436861726c6174616e000000000000000000000000000000000000000000000081525081526020016040518060400160405280600b81526020017f456e7465727461696e657200000000000000000000000000000000000000000081525081526020016040518060400160405280600681526020017f5361696c6f72000000000000000000000000000000000000000000000000000081525081526020016040518060400160405280600781526020017f4172746973616e0000000000000000000000000000000000000000000000000081525081526020016040518060400160405280600681526020017f4865726d6974000000000000000000000000000000000000000000000000000081525081526020016040518060400160405280600581526020017f4e6f626c6500000000000000000000000000000000000000000000000000000081525081526020016040518060400160405280600881526020017f466f6c6b4865726f00000000000000000000000000000000000000000000000081525081526020016040518060400160405280600981526020017f4f75746c616e646572000000000000000000000000000000000000000000000081525081526020016040518060400160405280600481526020017f536167650000000000000000000000000000000000000000000000000000000081525081526020016040518060400160405280600881526020017f4372696d696e616c00000000000000000000000000000000000000000000000081525081526020016040518060400160405280600781526020017f536f6c646965720000000000000000000000000000000000000000000000000081525081526020016040518060400160405280600681526020017f55726368696e000000000000000000000000000000000000000000000000000081525081526020016040518060400160405280600781526020017f41636f6c79746500000000000000000000000000000000000000000000000000815250815250600e90600d62000aad929190620013b8565b506040518061032001604052806040518060400160405280600981526020017f416c696365426c7565000000000000000000000000000000000000000000000081525081526020016040518060400160405280600a81526020017f417175616d6172696e650000000000000000000000000000000000000000000081525081526020016040518060400160405280600e81526020017f426c616e63686564416c6d6f6e6400000000000000000000000000000000000081525081526020016040518060400160405280600a81526020017f426c756556696f6c65740000000000000000000000000000000000000000000081525081526020016040518060400160405280600a81526020017f436861727472657573650000000000000000000000000000000000000000000081525081526020016040518060400160405280600581526020017f436f72616c00000000000000000000000000000000000000000000000000000081525081526020016040518060400160405280600481526020017f4379616e0000000000000000000000000000000000000000000000000000000081525081526020016040518060400160405280600881526020017f4461726b4772657900000000000000000000000000000000000000000000000081525081526020016040518060400160405280600d81526020017f4461726b536c617465477265790000000000000000000000000000000000000081525081526020016040518060400160405280600a81526020017f4461726b4f72616e67650000000000000000000000000000000000000000000081525081526020016040518060400160405280600c81526020017f4461726b536561477265656e000000000000000000000000000000000000000081525081526020016040518060400160405280600981526020017f46697265427269636b000000000000000000000000000000000000000000000081525081526020016040518060400160405280600781526020017f486f7450696e6b0000000000000000000000000000000000000000000000000081525081526020016040518060400160405280600781526020017f4461726b5265640000000000000000000000000000000000000000000000000081525081526020016040518060400160405280600d81526020017f4c69676874536561477265656e0000000000000000000000000000000000000081525081526020016040518060400160405280600781526020017f54686973746c650000000000000000000000000000000000000000000000000081525081526020016040518060400160405280600881526020017f4c6176656e64657200000000000000000000000000000000000000000000000081525081526020016040518060400160405280600981526020017f4c69676874426c7565000000000000000000000000000000000000000000000081525081526020016040518060400160405280601081526020017f4d656469756d417175614d6172696e650000000000000000000000000000000081525081526020016040518060400160405280600f81526020017f4d656469756d54757271756f697365000000000000000000000000000000000081525081526020016040518060400160405280600681526020017f4f72616e6765000000000000000000000000000000000000000000000000000081525081526020016040518060400160405280600681526020017f53616c6d6f6e000000000000000000000000000000000000000000000000000081525081526020016040518060400160405280600681526020017f59656c6c6f77000000000000000000000000000000000000000000000000000081525081526020016040518060400160405280600981526020017f54757271756f697365000000000000000000000000000000000000000000000081525081526020016040518060400160405280600481526020017f506c756d00000000000000000000000000000000000000000000000000000000815250815250600f9060196200108d9291906200141f565b503480156200109b57600080fd5b506040518060400160405280600a81526020017f4d7920442644204e4654000000000000000000000000000000000000000000008152506040518060400160405280600381526020017f444e44000000000000000000000000000000000000000000000000000000000081525081600090805190602001906200112092919062001259565b5080600190805190602001906200113992919062001259565b505050620011876040518060400160405280601e81526020017f4d79206669727374204e465420636f6e74726163742e2048555a5a41482100008152506200118d60201b620012f41760201c565b62001640565b6200122d81604051602401620011a4919062001554565b6040516020818303038152906040527f41304fac000000000000000000000000000000000000000000000000000000007bffffffffffffffffffffffffffffffffffffffffffffffffffffffff19166020820180517bffffffffffffffffffffffffffffffffffffffffffffffffffffffff83818316178352505050506200123060201b60201c565b50565b60008151905060006a636f6e736f6c652e6c6f679050602083016000808483855afa5050505050565b8280546200126790620015ca565b90600052602060002090601f0160209004810192826200128b5760008555620012d7565b82601f10620012a657805160ff1916838001178555620012d7565b82800160010185558215620012d7579182015b82811115620012d6578251825591602001919060010190620012b9565b5b509050620012e6919062001486565b5090565b8280548282559060005260206000209081019282156200133e579160200282015b828111156200133d5782518290805190602001906200132c92919062001259565b50916020019190600101906200130b565b5b5090506200134d9190620014a5565b5090565b828054828255906000526020600020908101928215620013a5579160200282015b82811115620013a45782518290805190602001906200139392919062001259565b509160200191906001019062001372565b5b509050620013b49190620014a5565b5090565b8280548282559060005260206000209081019282156200140c579160200282015b828111156200140b578251829080519060200190620013fa92919062001259565b5091602001919060010190620013d9565b5b5090506200141b9190620014a5565b5090565b82805482825590600052602060002090810192821562001473579160200282015b82811115620014725782518290805190602001906200146192919062001259565b509160200191906001019062001440565b5b509050620014829190620014a5565b5090565b5b80821115620014a157600081600090555060010162001487565b5090565b5b80821115620014c95760008181620014bf9190620014cd565b50600101620014a6565b5090565b508054620014db90620015ca565b6000825580601f10620014ef575062001510565b601f0160209004906000526020600020908101906200150f919062001486565b5b50565b6000620015208262001578565b6200152c818562001583565b93506200153e81856020860162001594565b62001549816200162f565b840191505092915050565b6000602082019050818103600083015262001570818462001513565b905092915050565b600081519050919050565b600082825260208201905092915050565b60005b83811015620015b457808201518184015260208101905062001597565b83811115620015c4576000848401525b50505050565b60006002820490506001821680620015e357607f821691505b60208210811415620015fa57620015f962001600565b5b50919050565b7f4e487b7100000000000000000000000000000000000000000000000000000000600052602260045260246000fd5b6000601f19601f8301169050919050565b613d8480620016506000396000f3fe608060405234801561001057600080fd5b50600436106101215760003560e01c806370a08231116100ad578063b88d4fde11610071578063b88d4fde14610340578063c575757a1461035c578063c87b56dd1461038c578063de9d132f146103bc578063e985e9c5146103c657610121565b806370a082311461028857806395d89b41146102b8578063a22cb465146102d6578063b187301f146102f2578063b4c3b8be1461032257610121565b806323b872dd116100f457806323b872dd146101c05780632de38d68146101dc57806342842e0e1461020c578063514dc8c6146102285780636352211e1461025857610121565b806301ffc9a71461012657806306fdde0314610156578063081812fc14610174578063095ea7b3146101a4575b600080fd5b610140600480360381019061013b9190612793565b6103f6565b60405161014d9190613560565b60405180910390f35b61015e6104d8565b60405161016b919061357b565b60405180910390f35b61018e600480360381019061018991906127e5565b61056a565b60405161019b91906134d0565b60405180910390f35b6101be60048036038101906101b99190612757565b6105ef565b005b6101da60048036038101906101d59190612651565b610707565b005b6101f660048036038101906101f191906127e5565b610767565b604051610203919061357b565b60405180910390f35b61022660048036038101906102219190612651565b610885565b005b610242600480360381019061023d91906127e5565b6108a5565b60405161024f919061357b565b60405180910390f35b610272600480360381019061026d91906127e5565b6109c3565b60405161027f91906134d0565b60405180910390f35b6102a2600480360381019061029d91906125ec565b610a75565b6040516102af9190613839565b60405180910390f35b6102c0610b2d565b6040516102cd919061357b565b60405180910390f35b6102f060048036038101906102eb919061271b565b610bbf565b005b61030c600480360381019061030791906127e5565b610bd5565b604051610319919061357b565b60405180910390f35b61032a610cf3565b6040516103379190613839565b60405180910390f35b61035a600480360381019061035591906126a0565b610cfd565b005b610376600480360381019061037191906127e5565b610d5f565b604051610383919061357b565b60405180910390f35b6103a660048036038101906103a191906127e5565b610e7d565b6040516103b3919061357b565b60405180910390f35b6103c4610fcf565b005b6103e060048036038101906103db9190612615565b611260565b6040516103ed9190613560565b60405180910390f35b60007f80ac58cd000000000000000000000000000000000000000000000000000000007bffffffffffffffffffffffffffffffffffffffffffffffffffffffff1916827bffffffffffffffffffffffffffffffffffffffffffffffffffffffff191614806104c157507f5b5e139f000000000000000000000000000000000000000000000000000000007bffffffffffffffffffffffffffffffffffffffffffffffffffffffff1916827bffffffffffffffffffffffffffffffffffffffffffffffffffffffff1916145b806104d157506104d08261138d565b5b9050919050565b6060600080546104e790613ad8565b80601f016020809104026020016040519081016040528092919081815260200182805461051390613ad8565b80156105605780601f1061053557610100808354040283529160200191610560565b820191906000526020600020905b81548152906001019060200180831161054357829003601f168201915b5050505050905090565b6000610575826113f7565b6105b4576040517f08c379a00000000000000000000000000000000000000000000000000000000081526004016105ab90613799565b60405180910390fd5b6004600083815260200190815260200160002060009054906101000a900473ffffffffffffffffffffffffffffffffffffffff169050919050565b60006105fa826109c3565b90508073ffffffffffffffffffffffffffffffffffffffff168373ffffffffffffffffffffffffffffffffffffffff16141561066b576040517f08c379a0000000000000000000000000000000000000000000000000000000008152600401610662906137f9565b60405180910390fd5b8073ffffffffffffffffffffffffffffffffffffffff1661068a611463565b73ffffffffffffffffffffffffffffffffffffffff1614806106b957506106b8816106b3611463565b611260565b5b6106f8576040517f08c379a00000000000000000000000000000000000000000000000000000000081526004016106ef906136d9565b60405180910390fd5b610702838361146b565b505050565b610718610712611463565b82611524565b610757576040517f08c379a000000000000000000000000000000000000000000000000000000000815260040161074e90613819565b60405180910390fd5b610762838383611602565b505050565b6060600061079b6107778461185e565b604051602001610787919061346a565b604051602081830303815290604052611a0b565b9050600c80549050816107ae9190613b53565b9050600c81815481106107ea577f4e487b7100000000000000000000000000000000000000000000000000000000600052603260045260246000fd5b9060005260206000200180546107ff90613ad8565b80601f016020809104026020016040519081016040528092919081815260200182805461082b90613ad8565b80156108785780601f1061084d57610100808354040283529160200191610878565b820191906000526020600020905b81548152906001019060200180831161085b57829003601f168201915b5050505050915050919050565b6108a083838360405180602001604052806000815250610cfd565b505050565b606060006108d96108b58461185e565b6040516020016108c591906134ae565b604051602081830303815290604052611a0b565b9050600f80549050816108ec9190613b53565b9050600f8181548110610928577f4e487b7100000000000000000000000000000000000000000000000000000000600052603260045260246000fd5b90600052602060002001805461093d90613ad8565b80601f016020809104026020016040519081016040528092919081815260200182805461096990613ad8565b80156109b65780601f1061098b576101008083540402835291602001916109b6565b820191906000526020600020905b81548152906001019060200180831161099957829003601f168201915b5050505050915050919050565b6000806002600084815260200190815260200160002060009054906101000a900473ffffffffffffffffffffffffffffffffffffffff169050600073ffffffffffffffffffffffffffffffffffffffff168173ffffffffffffffffffffffffffffffffffffffff161415610a6c576040517f08c379a0000000000000000000000000000000000000000000000000000000008152600401610a6390613719565b60405180910390fd5b80915050919050565b60008073ffffffffffffffffffffffffffffffffffffffff168273ffffffffffffffffffffffffffffffffffffffff161415610ae6576040517f08c379a0000000000000000000000000000000000000000000000000000000008152600401610add906136f9565b60405180910390fd5b600360008373ffffffffffffffffffffffffffffffffffffffff1673ffffffffffffffffffffffffffffffffffffffff168152602001908152602001600020549050919050565b606060018054610b3c90613ad8565b80601f0160208091040260200160405190810160405280929190818152602001828054610b6890613ad8565b8015610bb55780601f10610b8a57610100808354040283529160200191610bb5565b820191906000526020600020905b815481529060010190602001808311610b9857829003601f168201915b5050505050905090565b610bd1610bca611463565b8383611a3e565b5050565b60606000610c09610be58461185e565b604051602001610bf591906133e0565b604051602081830303815290604052611a0b565b9050600d8054905081610c1c9190613b53565b9050600d8181548110610c58577f4e487b7100000000000000000000000000000000000000000000000000000000600052603260045260246000fd5b906000526020600020018054610c6d90613ad8565b80601f0160208091040260200160405190810160405280929190818152602001828054610c9990613ad8565b8015610ce65780601f10610cbb57610100808354040283529160200191610ce6565b820191906000526020600020905b815481529060010190602001808311610cc957829003601f168201915b5050505050915050919050565b6000600954905090565b610d0e610d08611463565b83611524565b610d4d576040517f08c379a0000000000000000000000000000000000000000000000000000000008152600401610d4490613819565b60405180910390fd5b610d5984848484611bab565b50505050565b60606000610d93610d6f8461185e565b604051602001610d7f91906133be565b604051602081830303815290604052611a0b565b9050600e8054905081610da69190613b53565b9050600e8181548110610de2577f4e487b7100000000000000000000000000000000000000000000000000000000600052603260045260246000fd5b906000526020600020018054610df790613ad8565b80601f0160208091040260200160405190810160405280929190818152602001828054610e2390613ad8565b8015610e705780601f10610e4557610100808354040283529160200191610e70565b820191906000526020600020905b815481529060010190602001808311610e5357829003601f168201915b5050505050915050919050565b6060610e88826113f7565b610ec7576040517f08c379a0000000000000000000000000000000000000000000000000000000008152600401610ebe90613779565b60405180910390fd5b6000600660008481526020019081526020016000208054610ee790613ad8565b80601f0160208091040260200160405190810160405280929190818152602001828054610f1390613ad8565b8015610f605780601f10610f3557610100808354040283529160200191610f60565b820191906000526020600020905b815481529060010190602001808311610f4357829003601f168201915b505050505090506000610f71611c07565b9050600081511415610f87578192505050610fca565b600082511115610fbc578082604051602001610fa4929190613320565b60405160208183030381529060405292505050610fca565b610fc584611c1e565b925050505b919050565b6008546009541115611016576040517f08c379a000000000000000000000000000000000000000000000000000000000815260040161100d90613659565b60405180910390fd5b60006110226007611cc5565b9050600061102f82610767565b9050600061103c83610bd5565b9050600061104984610d5f565b9050600083838360405160200161106293929190613344565b6040516020818303038152906040529050600061107e866108a5565b90506000600a82600b8560405160200161109b9493929190613375565b604051602081830303815290604052905060006110e284846110bc85611cd3565b6040516020016110ce93929190613402565b604051602081830303815290604052611cd3565b90506000816040516020016110f7919061348c565b60405160208183030381529060405290506111466040518060400160405280601581526020017f0a2d2d2d2d2d2d2d2d2d2d2d2d2d2d2d2d2d2d2d2d00000000000000000000008152506112f4565b61114f816112f4565b61118d6040518060400160405280601581526020017f2d2d2d2d2d2d2d2d2d2d2d2d2d2d2d2d2d2d2d2d0a00000000000000000000008152506112f4565b611197338a611e91565b6111a18982611eaf565b6111ab6007611f23565b6111ce604051806060016040528060278152602001613d28602791398a33611f39565b6001600960008282546111e1919061390d565b9250508190555061121c6040518060600160405280603a8152602001613cae603a913960095460095460085461121791906139ee565b611fd8565b7f20674c8f6b9fa3c6fff9e210786034e925682949911eaf6730fc1ac39de11fa7338a60405161124d929190613537565b60405180910390a1505050505050505050565b6000600560008473ffffffffffffffffffffffffffffffffffffffff1673ffffffffffffffffffffffffffffffffffffffff16815260200190815260200160002060008373ffffffffffffffffffffffffffffffffffffffff1673ffffffffffffffffffffffffffffffffffffffff16815260200190815260200160002060009054906101000a900460ff16905092915050565b61138a81604051602401611308919061357b565b6040516020818303038152906040527f41304fac000000000000000000000000000000000000000000000000000000007bffffffffffffffffffffffffffffffffffffffffffffffffffffffff19166020820180517bffffffffffffffffffffffffffffffffffffffffffffffffffffffff8381831617835250505050612077565b50565b60007f01ffc9a7000000000000000000000000000000000000000000000000000000007bffffffffffffffffffffffffffffffffffffffffffffffffffffffff1916827bffffffffffffffffffffffffffffffffffffffffffffffffffffffff1916149050919050565b60008073ffffffffffffffffffffffffffffffffffffffff166002600084815260200190815260200160002060009054906101000a900473ffffffffffffffffffffffffffffffffffffffff1673ffffffffffffffffffffffffffffffffffffffff1614159050919050565b600033905090565b816004600083815260200190815260200160002060006101000a81548173ffffffffffffffffffffffffffffffffffffffff021916908373ffffffffffffffffffffffffffffffffffffffff160217905550808273ffffffffffffffffffffffffffffffffffffffff166114de836109c3565b73ffffffffffffffffffffffffffffffffffffffff167f8c5be1e5ebec7d5bd14f71427d1e84f3dd0314c0f7b2291e5b200ac8c7c3b92560405160405180910390a45050565b600061152f826113f7565b61156e576040517f08c379a0000000000000000000000000000000000000000000000000000000008152600401611565906136b9565b60405180910390fd5b6000611579836109c3565b90508073ffffffffffffffffffffffffffffffffffffffff168473ffffffffffffffffffffffffffffffffffffffff1614806115e857508373ffffffffffffffffffffffffffffffffffffffff166115d08461056a565b73ffffffffffffffffffffffffffffffffffffffff16145b806115f957506115f88185611260565b5b91505092915050565b8273ffffffffffffffffffffffffffffffffffffffff16611622826109c3565b73ffffffffffffffffffffffffffffffffffffffff1614611678576040517f08c379a000000000000000000000000000000000000000000000000000000000815260040161166f906137b9565b60405180910390fd5b600073ffffffffffffffffffffffffffffffffffffffff168273ffffffffffffffffffffffffffffffffffffffff1614156116e8576040517f08c379a00000000000000000000000000000000000000000000000000000000081526004016116df90613679565b60405180910390fd5b6116f38383836120a0565b6116fe60008261146b565b6001600360008573ffffffffffffffffffffffffffffffffffffffff1673ffffffffffffffffffffffffffffffffffffffff168152602001908152602001600020600082825461174e91906139ee565b925050819055506001600360008473ffffffffffffffffffffffffffffffffffffffff1673ffffffffffffffffffffffffffffffffffffffff16815260200190815260200160002060008282546117a5919061390d565b92505081905550816002600083815260200190815260200160002060006101000a81548173ffffffffffffffffffffffffffffffffffffffff021916908373ffffffffffffffffffffffffffffffffffffffff160217905550808273ffffffffffffffffffffffffffffffffffffffff168473ffffffffffffffffffffffffffffffffffffffff167fddf252ad1be2c89b69c2b068fc378daa952ba7f163c4a11628f55a4df523b3ef60405160405180910390a4505050565b606060008214156118a6576040518060400160405280600181526020017f30000000000000000000000000000000000000000000000000000000000000008152509050611a06565b600082905060005b600082146118d85780806118c190613b0a565b915050600a826118d19190613963565b91506118ae565b60008167ffffffffffffffff81111561191a577f4e487b7100000000000000000000000000000000000000000000000000000000600052604160045260246000fd5b6040519080825280601f01601f19166020018201604052801561194c5781602001600182028036833780820191505090505b5090505b600085146119ff5760018261196591906139ee565b9150600a856119749190613b53565b6030611980919061390d565b60f81b8183815181106119bc577f4e487b7100000000000000000000000000000000000000000000000000000000600052603260045260246000fd5b60200101907effffffffffffffffffffffffffffffffffffffffffffffffffffffffffffff1916908160001a905350600a856119f89190613963565b9450611950565b8093505050505b919050565b600081604051602001611a1e9190613309565b6040516020818303038152906040528051906020012060001c9050919050565b8173ffffffffffffffffffffffffffffffffffffffff168373ffffffffffffffffffffffffffffffffffffffff161415611aad576040517f08c379a0000000000000000000000000000000000000000000000000000000008152600401611aa490613699565b60405180910390fd5b80600560008573ffffffffffffffffffffffffffffffffffffffff1673ffffffffffffffffffffffffffffffffffffffff16815260200190815260200160002060008473ffffffffffffffffffffffffffffffffffffffff1673ffffffffffffffffffffffffffffffffffffffff16815260200190815260200160002060006101000a81548160ff0219169083151502179055508173ffffffffffffffffffffffffffffffffffffffff168373ffffffffffffffffffffffffffffffffffffffff167f17307eab39ab6107e8899845ad3d59bd9653f200f220920489ca2b5937696c3183604051611b9e9190613560565b60405180910390a3505050565b611bb6848484611602565b611bc2848484846120a5565b611c01576040517f08c379a0000000000000000000000000000000000000000000000000000000008152600401611bf890613619565b60405180910390fd5b50505050565b606060405180602001604052806000815250905090565b6060611c29826113f7565b611c68576040517f08c379a0000000000000000000000000000000000000000000000000000000008152600401611c5f906137d9565b60405180910390fd5b6000611c72611c07565b90506000815111611c925760405180602001604052806000815250611cbd565b80611c9c8461185e565b604051602001611cad929190613320565b6040516020818303038152906040525b915050919050565b600081600001549050919050565b60606000825190506000811415611cfc5760405180602001604052806000815250915050611e8c565b60006003600283611d0d919061390d565b611d179190613963565b6004611d239190613994565b90506000602082611d34919061390d565b67ffffffffffffffff811115611d73577f4e487b7100000000000000000000000000000000000000000000000000000000600052604160045260246000fd5b6040519080825280601f01601f191660200182016040528015611da55781602001600182028036833780820191505090505b5090506000604051806060016040528060408152602001613ce8604091399050600181016020830160005b86811015611e495760038101905062ffffff818a015116603f8160121c168401518060081b905060ff603f83600c1c1686015116810190508060081b905060ff603f8360061c1686015116810190508060081b905060ff603f831686015116810190508060e01b90508084526004840193505050611dd0565b506003860660018114611e635760028114611e7357611e7e565b613d3d60f01b6002830352611e7e565b603d60f81b60018303525b508484525050819450505050505b919050565b611eab82826040518060200160405280600081525061223c565b5050565b611eb8826113f7565b611ef7576040517f08c379a0000000000000000000000000000000000000000000000000000000008152600401611eee90613739565b60405180910390fd5b80600660008481526020019081526020016000209080519060200190611f1e929190612478565b505050565b6001816000016000828254019250508190555050565b611fd3838383604051602401611f519392919061359d565b6040516020818303038152906040527fe3849f79000000000000000000000000000000000000000000000000000000007bffffffffffffffffffffffffffffffffffffffffffffffffffffffff19166020820180517bffffffffffffffffffffffffffffffffffffffffffffffffffffffff8381831617835250505050612077565b505050565b612072838383604051602401611ff0939291906135db565b6040516020818303038152906040527f969cdd03000000000000000000000000000000000000000000000000000000007bffffffffffffffffffffffffffffffffffffffffffffffffffffffff19166020820180517bffffffffffffffffffffffffffffffffffffffffffffffffffffffff8381831617835250505050612077565b505050565b60008151905060006a636f6e736f6c652e6c6f679050602083016000808483855afa5050505050565b505050565b60006120c68473ffffffffffffffffffffffffffffffffffffffff16612297565b1561222f578373ffffffffffffffffffffffffffffffffffffffff1663150b7a026120ef611463565b8786866040518563ffffffff1660e01b815260040161211194939291906134eb565b602060405180830381600087803b15801561212b57600080fd5b505af192505050801561215c57506040513d601f19601f8201168201806040525081019061215991906127bc565b60015b6121df573d806000811461218c576040519150601f19603f3d011682016040523d82523d6000602084013e612191565b606091505b506000815114156121d7576040517f08c379a00000000000000000000000000000000000000000000000000000000081526004016121ce90613619565b60405180910390fd5b805181602001fd5b63150b7a0260e01b7bffffffffffffffffffffffffffffffffffffffffffffffffffffffff1916817bffffffffffffffffffffffffffffffffffffffffffffffffffffffff191614915050612234565b600190505b949350505050565b61224683836122aa565b61225360008484846120a5565b612292576040517f08c379a000000000000000000000000000000000000000000000000000000000815260040161228990613619565b60405180910390fd5b505050565b600080823b905060008111915050919050565b600073ffffffffffffffffffffffffffffffffffffffff168273ffffffffffffffffffffffffffffffffffffffff16141561231a576040517f08c379a000000000000000000000000000000000000000000000000000000000815260040161231190613759565b60405180910390fd5b612323816113f7565b15612363576040517f08c379a000000000000000000000000000000000000000000000000000000000815260040161235a90613639565b60405180910390fd5b61236f600083836120a0565b6001600360008473ffffffffffffffffffffffffffffffffffffffff1673ffffffffffffffffffffffffffffffffffffffff16815260200190815260200160002060008282546123bf919061390d565b92505081905550816002600083815260200190815260200160002060006101000a81548173ffffffffffffffffffffffffffffffffffffffff021916908373ffffffffffffffffffffffffffffffffffffffff160217905550808273ffffffffffffffffffffffffffffffffffffffff16600073ffffffffffffffffffffffffffffffffffffffff167fddf252ad1be2c89b69c2b068fc378daa952ba7f163c4a11628f55a4df523b3ef60405160405180910390a45050565b82805461248490613ad8565b90600052602060002090601f0160209004810192826124a657600085556124ed565b82601f106124bf57805160ff19168380011785556124ed565b828001600101855582156124ed579182015b828111156124ec5782518255916020019190600101906124d1565b5b5090506124fa91906124fe565b5090565b5b808211156125175760008160009055506001016124ff565b5090565b600061252e61252984613885565b613854565b90508281526020810184848401111561254657600080fd5b612551848285613a96565b509392505050565b60008135905061256881613c51565b92915050565b60008135905061257d81613c68565b92915050565b60008135905061259281613c7f565b92915050565b6000815190506125a781613c7f565b92915050565b600082601f8301126125be57600080fd5b81356125ce84826020860161251b565b91505092915050565b6000813590506125e681613c96565b92915050565b6000602082840312156125fe57600080fd5b600061260c84828501612559565b91505092915050565b6000806040838503121561262857600080fd5b600061263685828601612559565b925050602061264785828601612559565b9150509250929050565b60008060006060848603121561266657600080fd5b600061267486828701612559565b935050602061268586828701612559565b9250506040612696868287016125d7565b9150509250925092565b600080600080608085870312156126b657600080fd5b60006126c487828801612559565b94505060206126d587828801612559565b93505060406126e6878288016125d7565b925050606085013567ffffffffffffffff81111561270357600080fd5b61270f878288016125ad565b91505092959194509250565b6000806040838503121561272e57600080fd5b600061273c85828601612559565b925050602061274d8582860161256e565b9150509250929050565b6000806040838503121561276a57600080fd5b600061277885828601612559565b9250506020612789858286016125d7565b9150509250929050565b6000602082840312156127a557600080fd5b60006127b384828501612583565b91505092915050565b6000602082840312156127ce57600080fd5b60006127dc84828501612598565b91505092915050565b6000602082840312156127f757600080fd5b6000612805848285016125d7565b91505092915050565b61281781613a22565b82525050565b61282681613a34565b82525050565b6000612837826138ca565b61284181856138e0565b9350612851818560208601613aa5565b61285a81613c40565b840191505092915050565b6000612870826138d5565b61287a81856138f1565b935061288a818560208601613aa5565b61289381613c40565b840191505092915050565b60006128a9826138d5565b6128b38185613902565b93506128c3818560208601613aa5565b80840191505092915050565b600081546128dc81613ad8565b6128e68186613902565b94506001821660008114612901576001811461291257612945565b60ff19831686528186019350612945565b61291b856138b5565b60005b8381101561293d5781548189015260018201915060208101905061291e565b838801955050505b50505092915050565b600061295b600a83613902565b91507f22636f6c6f72223a2022000000000000000000000000000000000000000000006000830152600a82019050919050565b600061299b6032836138f1565b91507f4552433732313a207472616e7366657220746f206e6f6e20455243373231526560008301527f63656976657220696d706c656d656e74657200000000000000000000000000006020830152604082019050919050565b6000612a01601c836138f1565b91507f4552433732313a20746f6b656e20616c7265616479206d696e746564000000006000830152602082019050919050565b6000612a41602b836138f1565b91507f546865206d6178696d756d20737570706c792068617320616c7265616479206260008301527f65656e206d696e746564210000000000000000000000000000000000000000006020830152604082019050919050565b6000612aa7600a83613902565b91507f54484952445f574f5244000000000000000000000000000000000000000000006000830152600a82019050919050565b6000612ae76024836138f1565b91507f4552433732313a207472616e7366657220746f20746865207a65726f2061646460008301527f72657373000000000000000000000000000000000000000000000000000000006020830152604082019050919050565b6000612b4d6019836138f1565b91507f4552433732313a20617070726f766520746f2063616c6c6572000000000000006000830152602082019050919050565b6000612b8d600b83613902565b91507f5345434f4e445f574f52440000000000000000000000000000000000000000006000830152600b82019050919050565b6000612bcd602c836138f1565b91507f4552433732313a206f70657261746f7220717565727920666f72206e6f6e657860008301527f697374656e7420746f6b656e00000000000000000000000000000000000000006020830152604082019050919050565b6000612c33600d83613902565b91507f3c2f746578743e3c2f7376673e000000000000000000000000000000000000006000830152600d82019050919050565b6000612c736038836138f1565b91507f4552433732313a20617070726f76652063616c6c6572206973206e6f74206f7760008301527f6e6572206e6f7220617070726f76656420666f7220616c6c00000000000000006020830152604082019050919050565b6000612cd9602a836138f1565b91507f4552433732313a2062616c616e636520717565727920666f7220746865207a6560008301527f726f2061646472657373000000000000000000000000000000000000000000006020830152604082019050919050565b6000612d3f6029836138f1565b91507f4552433732313a206f776e657220717565727920666f72206e6f6e657869737460008301527f656e7420746f6b656e00000000000000000000000000000000000000000000006020830152604082019050919050565b6000612da5602e836138f1565b91507f45524337323155524953746f726167653a2055524920736574206f66206e6f6e60008301527f6578697374656e7420746f6b656e0000000000000000000000000000000000006020830152604082019050919050565b6000612e0b600283613902565b91507f227d0000000000000000000000000000000000000000000000000000000000006000830152600282019050919050565b6000612e4b6020836138f1565b91507f4552433732313a206d696e7420746f20746865207a65726f20616464726573736000830152602082019050919050565b6000612e8b6031836138f1565b91507f45524337323155524953746f726167653a2055524920717565727920666f722060008301527f6e6f6e6578697374656e7420746f6b656e0000000000000000000000000000006020830152604082019050919050565b6000612ef1602c836138f1565b91507f4552433732313a20617070726f76656420717565727920666f72206e6f6e657860008301527f697374656e7420746f6b656e00000000000000000000000000000000000000006020830152604082019050919050565b6000612f57606f83613902565b91507f222c20226465736372697074696f6e223a20224120636f6c6c656374696f6e2060008301527f6f66204426442035452063686172616374657273206261736564206f6e20726160208301527f6e646f6d6c792067656e65726174656420726163652c20636c6173732c20616e60408301527f64206261636b67726f756e642e222c00000000000000000000000000000000006060830152606f82019050919050565b60006130096029836138f1565b91507f4552433732313a207472616e73666572206f6620746f6b656e2074686174206960008301527f73206e6f74206f776e00000000000000000000000000000000000000000000006020830152604082019050919050565b600061306f602f836138f1565b91507f4552433732314d657461646174613a2055524920717565727920666f72206e6f60008301527f6e6578697374656e7420746f6b656e00000000000000000000000000000000006020830152604082019050919050565b60006130d5602783613902565b91507f222c2022696d616765223a2022646174613a696d6167652f7376672b786d6c3b60008301527f6261736536342c000000000000000000000000000000000000000000000000006020830152602782019050919050565b600061313b600a83613902565b91507f7b226e616d65223a2022000000000000000000000000000000000000000000006000830152600a82019050919050565b600061317b6021836138f1565b91507f4552433732313a20617070726f76616c20746f2063757272656e74206f776e6560008301527f72000000000000000000000000000000000000000000000000000000000000006020830152604082019050919050565b60006131e1600a83613902565b91507f46495253545f574f5244000000000000000000000000000000000000000000006000830152600a82019050919050565b6000613221601d83613902565b91507f646174613a6170706c69636174696f6e2f6a736f6e3b6261736536342c0000006000830152601d82019050919050565b60006132616031836138f1565b91507f4552433732313a207472616e736665722063616c6c6572206973206e6f74206f60008301527f776e6572206e6f7220617070726f7665640000000000000000000000000000006020830152604082019050919050565b60006132c7600583613902565b91507f434f4c4f520000000000000000000000000000000000000000000000000000006000830152600582019050919050565b61330381613a8c565b82525050565b6000613315828461289e565b915081905092915050565b600061332c828561289e565b9150613338828461289e565b91508190509392505050565b6000613350828661289e565b915061335c828561289e565b9150613368828461289e565b9150819050949350505050565b600061338182876128cf565b915061338d828661289e565b915061339982856128cf565b91506133a5828461289e565b91506133b082612c26565b915081905095945050505050565b60006133c982612a9a565b91506133d5828461289e565b915081905092915050565b60006133eb82612b80565b91506133f7828461289e565b915081905092915050565b600061340d8261312e565b9150613419828661289e565b915061342482612f4a565b915061342f8261294e565b915061343b828561289e565b9150613446826130c8565b9150613452828461289e565b915061345d82612dfe565b9150819050949350505050565b6000613475826131d4565b9150613481828461289e565b915081905092915050565b600061349782613214565b91506134a3828461289e565b915081905092915050565b60006134b9826132ba565b91506134c5828461289e565b915081905092915050565b60006020820190506134e5600083018461280e565b92915050565b6000608082019050613500600083018761280e565b61350d602083018661280e565b61351a60408301856132fa565b818103606083015261352c818461282c565b905095945050505050565b600060408201905061354c600083018561280e565b61355960208301846132fa565b9392505050565b6000602082019050613575600083018461281d565b92915050565b600060208201905081810360008301526135958184612865565b905092915050565b600060608201905081810360008301526135b78186612865565b90506135c660208301856132fa565b6135d3604083018461280e565b949350505050565b600060608201905081810360008301526135f58186612865565b905061360460208301856132fa565b61361160408301846132fa565b949350505050565b600060208201905081810360008301526136328161298e565b9050919050565b60006020820190508181036000830152613652816129f4565b9050919050565b6000602082019050818103600083015261367281612a34565b9050919050565b6000602082019050818103600083015261369281612ada565b9050919050565b600060208201905081810360008301526136b281612b40565b9050919050565b600060208201905081810360008301526136d281612bc0565b9050919050565b600060208201905081810360008301526136f281612c66565b9050919050565b6000602082019050818103600083015261371281612ccc565b9050919050565b6000602082019050818103600083015261373281612d32565b9050919050565b6000602082019050818103600083015261375281612d98565b9050919050565b6000602082019050818103600083015261377281612e3e565b9050919050565b6000602082019050818103600083015261379281612e7e565b9050919050565b600060208201905081810360008301526137b281612ee4565b9050919050565b600060208201905081810360008301526137d281612ffc565b9050919050565b600060208201905081810360008301526137f281613062565b9050919050565b600060208201905081810360008301526138128161316e565b9050919050565b6000602082019050818103600083015261383281613254565b9050919050565b600060208201905061384e60008301846132fa565b92915050565b6000604051905081810181811067ffffffffffffffff8211171561387b5761387a613c11565b5b8060405250919050565b600067ffffffffffffffff8211156138a05761389f613c11565b5b601f19601f8301169050602081019050919050565b60008190508160005260206000209050919050565b600081519050919050565b600081519050919050565b600082825260208201905092915050565b600082825260208201905092915050565b600081905092915050565b600061391882613a8c565b915061392383613a8c565b9250827fffffffffffffffffffffffffffffffffffffffffffffffffffffffffffffffff0382111561395857613957613b84565b5b828201905092915050565b600061396e82613a8c565b915061397983613a8c565b92508261398957613988613bb3565b5b828204905092915050565b600061399f82613a8c565b91506139aa83613a8c565b9250817fffffffffffffffffffffffffffffffffffffffffffffffffffffffffffffffff04831182151516156139e3576139e2613b84565b5b828202905092915050565b60006139f982613a8c565b9150613a0483613a8c565b925082821015613a1757613a16613b84565b5b828203905092915050565b6000613a2d82613a6c565b9050919050565b60008115159050919050565b60007fffffffff0000000000000000000000000000000000000000000000000000000082169050919050565b600073ffffffffffffffffffffffffffffffffffffffff82169050919050565b6000819050919050565b82818337600083830152505050565b60005b83811015613ac3578082015181840152602081019050613aa8565b83811115613ad2576000848401525b50505050565b60006002820490506001821680613af057607f821691505b60208210811415613b0457613b03613be2565b5b50919050565b6000613b1582613a8c565b91507fffffffffffffffffffffffffffffffffffffffffffffffffffffffffffffffff821415613b4857613b47613b84565b5b600182019050919050565b6000613b5e82613a8c565b9150613b6983613a8c565b925082613b7957613b78613bb3565b5b828206905092915050565b7f4e487b7100000000000000000000000000000000000000000000000000000000600052601160045260246000fd5b7f4e487b7100000000000000000000000000000000000000000000000000000000600052601260045260246000fd5b7f4e487b7100000000000000000000000000000000000000000000000000000000600052602260045260246000fd5b7f4e487b7100000000000000000000000000000000000000000000000000000000600052604160045260246000fd5b6000601f19601f8301169050919050565b613c5a81613a22565b8114613c6557600080fd5b50565b613c7181613a34565b8114613c7c57600080fd5b50565b613c8881613a40565b8114613c9357600080fd5b50565b613c9f81613a8c565b8114613caa57600080fd5b5056fe4120746f74616c206f66202564204e4654732068617665206265656e206d696e74656420616e642025642072656d61696e2e2048555a5a4148214142434445464748494a4b4c4d4e4f505152535455565758595a6162636465666768696a6b6c6d6e6f707172737475767778797a303132333435363738392b2f416e204e4654207769746820494420257320686173206265656e206d696e74656420746f202573a2646970667358221220753ecef0c8ca5ebbecfb1a5dd6e3aed5121357b5424c5c1b3cfb3cdd82159a9064736f6c634300080000333c73766720786d6c6e733d27687474703a2f2f7777772e77332e6f72672f323030302f73766727207072657365727665417370656374526174696f3d27784d696e594d696e206d656574272076696577426f783d273020302033353020333530273e3c7374796c653e2e62617365207b2066696c6c3a626c61636b3b20666f6e742d66616d696c793a20636f75726965723b20666f6e742d73697a653a20313670783b20666f6e742d7765696768743a20626f6c643b206c65747465722d73706163696e673a203170783b207d3c2f7374796c653e3c726563742077696474683d273130302527206865696768743d2731303025272066696c6c3d27272f3e3c7465787420783d273530252720793d273530252720636c6173733d27626173652720646f6d696e616e742d626173656c696e653d276d6964646c652720746578742d616e63686f723d276d6964646c65273e",
  "linkReferences": {},
  "deployedLinkReferences": {}
}